:020000040000FA
:10000000703C0020ED070000070800000908000010
:1000100000000000000000000000000000000000E0
:100020000000000000000000000000000B080000BD
:1000300000000000000000000D0800000F08000094
:100040001108000011080000A506000011080000BA
:100050001108000000000000110800001108000055
:10006000110800001108000011080000110800002C
:10007000110800001108000011080000110800001C
:10008000110800001108000011080000110800000C
:1000900011080000110800001108000011080000FC
:1000A000110800001108000000000000000000001E
:1000B0000000000000000000000000000000000040
:1000C00000F002F800F03EF80CA030C80838241800
:1000D0002D18A246671EAB4654465D46AC4201D180
:1000E00000F030F87E460F3E0FCCB6460126334274
:1000F00000D0FB1AA246AB46334318471409000050
:1001000034090000103A02D378C878C1FAD85207EF
:1001100001D330C830C101D504680C6070470000BD
:100120000023002400250026103A01D378C1FBD813
:10013000520700D330C100D50B6070471FB51FBDFB
:1001400010B510BD00F031FC1146FFF7F7FF00F0CD
:1001500029F800F049FC03B4FFF7F2FF03BC00F0FC
:100160004FFC0000401E00BF00BF00BF00BF00BF2B
:1001700000BF00BF00BF00BF00BF00BF00BFF1D184
:1001800070470000401E00BF00BF00BF00BF00BF9F
:1001900000BF00BF00BF00BF00BF00BF00BFF1D164
:1001A000704700001CB50020019000250B230A2297
:1001B00009210090082000F079F900F053FA12208C
:1001C00003210522120707231B02D2188300D150F6
:1001D00000BF10201121032208E0930005263607F6
:1001E00007273F02F6198700F351401C8842F4D9D3
:1001F00000BF00BF4DA000F049F953A000F046F940
:1002000055A000F043F958A000F040F900BF84E089
:100210005A480088002811D0584909880198884216
:1002200009D156480588002001905449088054A0FF
:1002300000F02CF902E0514800880190102000F0F5
:100240006DF800282AD10A2000F078F9102000F07B
:1002500065F8002822D100BF102000F05FF80028C8
:10026000FAD0002D17D04BA000F010F90120400764
:100270004068000E0006002809D12A464A49072096
:10028000800300F06BFA49A000F000F906E04BA0F3
:1002900000F0FCF802E04EA000F0F8F8112000F0A9
:1002A0003DF800281FD10A2000F048F9112000F085
:1002B00035F8002817D100BF112000F02FF80028D2
:1002C000FAD0072080034068000E0006002807D1FE
:1002D00045A000F0DBF80720800300F07AFA02E086
:1002E00047A000F0D3F8601CC4B20A2000F026F941
:1002F000142C12D100241220012383401946474BAD
:100300005B68C340DA07D20F002A02D1434B9960E1
:1003100001E0424BD96000BF00BF79E701463F488A
:100320000069C840C007C00F704700004941502015
:10033000626F6F746C6F6164657220737461727444
:100340002E2E2E0A000000004B455931A3BAD0B41E
:10035000C8EBB9CCBCFE0A004B455932A3BAD6B49F
:10036000D0D0B9CCBCFE0A00B5C8B4FDBDD3CAD547
:10037000B9CCBCFE2E2E2E0A00000000000000208A
:10038000D3C3BBA7B3CCD0F2BDD3CAD5CDEAB3C9D2
:10039000210A0000BFAACABCB8FCD0C2B9CCBCFEBE
:1003A0002E2E2E0A000000000C000020B9CCBCFE4E
:1003B000B8FCD0C2CDEAB3C9210A0000B7C7464C89
:1003C000415348D3A6D3C3B3CCD0F2210A000000D6
:1003D000C3BBD3D0BFC9D2D4B8FCD0C2B5C4B9CC8A
:1003E000BCFE210A00000000BFAACABCD6B4D0D00F
:1003F000464C415348D3C3BBA7B4FAC2EB210A0011
:10040000B7C7464C415348D3A6D3C3B3CCD0F22C84
:10041000CEDEB7A8D6B4D0D0210A00000005005027
:1004200000BF424880680128FBD100203F49886016
:100430003F488069C0B2704770B504460D4601263A
:100440000AE02046641E002804DB7D20C000FFF780
:1004500089FE01E0002603E0344880680128F0D1DD
:1004600000BF002C05DB00203049886030488069DF
:100470002870304670BD2E49C86100BF2B49C9693C
:100480000129FBD10021294AD161704730B50346CB
:10049000002528466D1C1C5C05E02046FFF7EBFF9D
:1004A00028466D1C1C5C002CF7D130BDF8B5074602
:1004B0000C4615461E46204600F025F80021304621
:1004C00000F02AF81A48C4604661069800280DD04A
:1004D000384600F018F80021284600F01DF81448AE
:1004E00005618760012012494031C86211481049F6
:1004F00048620420086001200F49886008600020DD
:100500000A498860F8BD03210522120707231B0250
:10051000D2188300D150704710B58A0005231B07FD
:10052000072424021B1984001A5110BD0021004029
:100530000025004000509D000020004001B505E06E
:100540000098401E00900348FFF71CFE009800280A
:10055000F6D108BDE70300000221404A516000BF08
:100560003F4909680029FBD03C49886000BF3C49ED
:1005700009680029FBD00021384A516000BF384982
:1005800009680029FBD07047F0B50A468107890F3A
:1005900005468D432B46CF00FF26BE401D68B54360
:1005A0002C46CE001546B5402C1901252B4E756002
:1005B00000BF2B4D2D68002DFBD01C6000BF284DC7
:1005C0002D68002DFBD00025244E7560F0BD012262
:1005D000224B5A6000BF224A1268002AFBD00160F9
:1005E00000BF1F4A1268002AFBD000221B4B5A6032
:1005F00000BF1B4A1268002AFBD07047F0B50546C1
:100600000E461746002404E0315D2819FFF7BCFFB1
:10061000641CBC42F8D3F0BD30B5034601240F4D35
:100620006C6000BF0E4C2468002CFBD0002009E059
:1006300084000C5985005C5100BF094C2468002CD3
:10064000FBD0401C9042F3D30024044D6C6000BFEB
:10065000034C2468002CFBD030BD000000E50140B5
:1006600000E4014010B504203549486000203549B8
:1006700088600121022000F02CF80220002805DB10
:10068000C206D20E012191402F4A116000BF022004
:10069000002805DBC206D20E012191402B4A1160D1
:1006A00000BF10BD10B527498968002910D0FFF799
:1006B000B7FE274909880522D202914208DA254966
:1006C000234A1288885422490988491C204A1180EB
:1006D00010BD10B5002819DB1C4A03231B02D218D9
:1006E00083089B00D2588307DC0EFF23A3409A4364
:1006F0008B071B0E8407E40EA3401A43134B0324FD
:1007000024021B198408A4001A5118E0124A030796
:100710001B0F083B9B089B00D2588307DC0EFF236E
:10072000A3409A438B071B0E8407E40EA3401A4391
:10073000094B0407240F083CA408A4001A5110BD5B
:10074000002300400021004080E200E000E100E0E2
:10075000000000200C0000201CED00E0F7B584B084
:100760000D4616460024049802900195002003903F
:1007700020E0019807780198401C01902046611CF8
:100780008CB218490F540120800284420ED10024FB
:100790000298FFF7E1FE0122920212490298FFF748
:1007A0002DFF012189020298401802900398401CF5
:1007B00080B203900398B042DBD3002C07D002989C
:1007C000FFF7CAFE224607490298FFF717FF07B056
:1007D000F0BD10B50446044960680860084600682A
:1007E000804710BD0C2800200400002003210C4885
:1007F00002680A4302600B4802680A4302600A4822
:1008000080470A480047FEE7FEE7FEE7FEE7FEE70F
:10081000FEE7000006480749074A084B70470000FA
:10082000240500405405004033090000C1000000C9
:10083000702C0020703C00207034002070340020A8
:100840004F485049086070474F48008CC0B201289B
:100850001FD14D48808C0007000F002819D14A484D
:10086000806AF0210840A02806D14748C06A0840A5
:10087000002801D1012070474348806AF0210840D8
:10088000D02806D14048C06A0840002801D1012084
:10089000F1E70020EFE73C48008CC0B2012812D1FC
:1008A0003948808C0007000F00280CD13648806A38
:1008B000F0210840402806D13348C06A084000288B
:1008C00001D1012070470020FCE72F48008CC0B206
:1008D00001282CD12C48808C0007000F002826D13D
:1008E0002948806AF0210840002806D12648C06ABD
:1008F0000840002801D1012070472348806AF02178
:100900000840102806D12048C06A0840002801D1BC
:100910000120F1E71C48806AF0210840302806D108
:100920001948C06A0840002801D10120E4E70020EE
:10093000E2E710B5FFF7C9FF002805D013481449B6
:100940004860C81313498861FFF7A5FF002802D04B
:10095000012011498860FFF777FF00280ED00F486B
:100960000068012807D00E480C49086000BF0B48FA
:1009700000680128FBD1C0200849486110BD000073
:100980000024F40008000020C00F00F0DFFF07C0C3
:1009900000050040006C00400006004000EC0640EE
:1009A00075930000704770477047754600F024F853
:1009B000AE46050069465346C008C000854618B0DB
:1009C00020B5FFF727FF60BC00274908B646002680
:1009D000C0C5C0C5C0C5C0C5C0C5C0C5C0C5C0C5EF
:1009E000403D49008D46704710B50446C046C0469C
:1009F0002046FFF7B0FB10BD004870470C2C0020CC
:100A000001491820ABBEFEE7260002007047000037
:100A1000300A0000000000200C000000040100006B
:100A20003C0A00000C000020643C00002001000093
:0C0A300000000000000000000024F400A2
:04000005000000C136
:00000001FF
